:100000000C94E8000C9410010C9410010C94100155
:100010000C9410010C9410010C9410010C9410011C
:100020000C9410010C9410010C94E30B0C94750AC1
:100030000C9410010C9410010C9410010C941001FC
:100040000C9410010C9410010C9410010C941001EC
:100050000C9410010C9410010C9410010C945F0589
:100060000C9410010C9410010C9410010C941001CC
:100070000C9410010C9410010C9410010C941001BC
:100080000C9410010C9410010C9410010C941001AC
:100090000C9410010C9410010C9410010C9410019C
:1000A0000C9410010C9410010C9410017406770646
:1000B00066066A0670069806980698067B067F060E
:1000C000830689068D069806930600000002000943
:1000D0000F0000030401000C0000000000000000FD
:1000E0000000000000000000000408020110408031
:1000F000401020408040800802040180402010020F
:10010000011080102040402004040404040304056E
:1001100002020202040302020202060606060606A4
:100120000404020202040400000000250028002B41
:10013000002E00310000000000240027002A002DBE
:10014000003000080B000202020100090400000157
:10015000020200000524001001052401010104240D
:10016000020605240600010705810310004009046A
:100170000100020A00000007050202400000070516
:10018000830240000012010002EF020140412336C9
:100190008000010102030112010002000000404141
:1001A00023368000010102030141726475696E6F9C
:1001B000204C4C430041726475696E6F204C656F32
:1001C0006E6172646F0004030904D401FF07EF013C
:1001D00011241FBECFEFDAE0DEBFCDBF13E0A0E0F9
:1001E000B1E0EAEEF0E202C005900D92A431B10751
:1001F000D9F723E0A4E1B3E001C01D92AF39B20703
:10020000E1F711E0CEECD1E004C02297FE010E949C
:10021000E70DCA3CD107C9F70E94360D0C9468104F
:100220000C940000BC0183E393E00C943208EF923D
:10023000FF920F931F93CF93DF9300D000D000D095
:10024000CDB7DEB78C0179016BE271E00E94EC0F53
:10025000892B21F481E0809329031BC061E371E0C5
:10026000C8010E94EC0F892B01F560912703709162
:1002700028034AE0CE0101960E94090D49815A8166
:1002800065E371E0C7010E942A05CE0101960E9434
:10029000830C00E010E020E030E040E050E060E05F
:1002A00070E0C7010E947D020BC000E010E020E07A
:1002B00030E040E050E062E471E0C7010E94D30208
:1002C00026960FB6F894DEBF0FBECDBFDF91CF915B
:1002D0001F910F91FF90EF90089540E855E260E084
:1002E00070E083E393E00E94F90761E080910E01E2
:1002F0000E949906609108017091090184E193E0E0
:100300000E945705609106017091070184E193E016
:100310000C945B05CF92DF92EF92FF920F931F93A5
:10032000CF93DF9300D000D000D0CDB7DEB76C0103
:100330000EE011E061E0F80180810E94D206EE2417
:10034000D7FCE094FE2CC701B6010E94CC0560E00A
:10035000F80180810E94D206C701B6010E94CC0537
:1003600060912703709128034AE0CE0101960E9414
:10037000090D49815A8165E371E084E193E00E94AF
:100380002A05CE0101960E94830C26960FB6F8949A
:10039000DEBF0FBECDBFDF91CF911F910F91FF90B8
:1003A000EF90DF90CF900895EF92FF920F931F93FD
:1003B000E0900C01F0900D0100910A0110910B01E9
:1003C00022E131E047E151E06CE271E084E193E049
:1003D0000E9427021F910F91FF90EF90089584E1F2
:1003E00093E00C94620283E393E00E943207892B2E
:1003F00051F083E393E00E944207682F84E193E089
:100400000E94F004F0CF809129038823F9F088EC52
:1004100090E00E948A0180E991E00E948A0188ECC4
:1004200090E00E948A0184E690E00E948A0184E6BE
:1004300090E00E948A018091270390912803019601
:1004400090932803809327031092290308958F9295
:100450009F92AF92BF92CF92DF92EF92FF920F9353
:100460001F93CF93DF93EC016A0159017B836A8369
:100470004B018FEF881A980AC4010E94EB0D9983F3
:100480008883A40160E070E00E94E50FD88ACF86DF
:10049000BA8AA98A1D821C821E8218870F83FA8657
:1004A000E9861C861B861E861D86DF91CF911F91D3
:1004B0000F91FF90EF90DF90CF90BF90AF909F9003
:1004C0008F9008950895DC0112962D913C91139719
:1004D000621773076CF4DC01ED91FC91E60FF71FD6
:1004E0004081442329F04C3731F06F5F7F4FF0CFCC
:1004F0008FEF9FEF0895CB010895AF92BF92CF92F7
:10050000DF92EF92FF920F931F93CF93DF93EC0153
:100510005B016A01790181E08E83E989FA89809122
:100520001601909117010995A114B10449F0E989C8
:10053000FA8989E792E00995E989FA89C50109955F
:10054000C114D10449F0E989FA8989E792E0099553
:10055000E989FA89C6010995E114F10449F0E989AC
:10056000FA8989E792E00995E989FA89C70109952D
:100570000115110549F0E989FA8989E792E00995A1
:10058000E989FA89C8010995E989FA898BE792E036
:10059000DF91CF911F910F91FF90EF90DF90CF905F
:1005A000BF90AF900994AF92BF92CF92DF92EF923B
:1005B000FF920F931F93CF93DF93EC015B016A01CE
:1005C000790181E08E83E989FA8980911401909103
:1005D00015010995A114B10449F0E989FA8989E75F
:1005E00092E00995E989FA89C5010995C114D104F8
:1005F00049F0E989FA8989E792E00995E989FA8958
:10060000C6010995E114F10449F0E989FA8989E7FD
:1006100092E00995E989FA89C70109950115110543
:1006200049F0E989FA8989E792E00995E989FA8927
:10063000C8010995E989FA898BE792E0DF91CF91AA
:100640001F910F91FF90EF90DF90CF90BF90AF90F0
:1006500009948F929F92AF92BF92CF92DF92EF92C6
:10066000FF920F931F93CF93DF93EC014B015A013D
:100670006901E989FA898091120190911301099524
:100680008114910449F0E989FA8989E792E0099592
:10069000E989FA89C4010995A114B10449F0E989ED
:1006A000FA8989E792E00995E989FA89C5010995EE
:1006B000C114D10449F0E989FA8989E792E00995E2
:1006C000E989FA89C60109950115110549F0E989F9
:1006D000FA8989E792E00995E989FA89C8010995BB
:1006E000E114F10449F0E989FA8989E792E0099572
:1006F000E989FA89C7010995E989FA898BE792E0C6
:10070000DF91CF911F910F91FF90EF90DF90CF90ED
:10071000BF90AF909F908F900994AF92BF92CF926D
:10072000DF92EF92FF920F931F93CF93DF93EC0131
:10073000CB015A016901E989FA890995A114B1042B
:1007400049F0E989FA8989E792E00995E989FA8906
:10075000C5010995C114D10449F0E989FA8989E7ED
:1007600092E00995E989FA89C601099501151105F3
:1007700049F0E989FA8989E792E00995E989FA89D6
:10078000C8010995E114F10449F0E989FA8989E77A
:1007900092E00995E989FA89C7010995E989FA89F9
:1007A0008BE792E0DF91CF911F910F91FF90EF9037
:1007B000DF90CF90BF90AF900994CF92DF92EF92ED
:1007C000FF920F931F93CF93DF93EC018B016A018C
:1007D00079016DE772E0C8010E94EC0F892B59F492
:1007E00029853A854F815885E12CF12C00E010E0F5
:1007F00066E872E011C061E972E0C8010E94EC0F86
:10080000892B71F4E12CF12C00E010E020E030E0C5
:100810004EE952E066E972E0CE010E948D0367C0A6
:100820006AEA72E0C8010E94EC0F892B09F052C0FD
:100830001E141F043CF4F60100811181F80180812F
:10084000811109C000E010E020E030E040E050E01D
:100850006FEA72E03BC0833211F56AEB72E0C801C7
:100860000E94EC0F892B19F46D857E8509C063EC1D
:1008700072E0C8010E94EC0F892B21F76B857C8503
:1008800000E010E020E030E040E050E0611571054C
:1008900011F46CE772E0CE010E947D0228C01E8236
:1008A000A70141505109B6016E5F7F4FEF85F8896E
:1008B0009E01C80109958E81811119C000E010E0E8
:1008C00020E030E040E050E06DEC72E0CE010E94AC
:1008D000D3020DC0E12CF12C00E010E020E030E06C
:1008E00040E050E06BED72E0CE010E942903DF9101
:1008F000CF911F910F91FF90EF90DF90CF900895CF
:10090000CF92DF92EF92FF920F931F93CF93DF93DB
:10091000CDB7DEB766970FB6F894DEBF0FBECDBF7A
:100920008C01DC01ED90FC90F7018081882309F4B3
:1009300048C08C3709F445C0CE014596FE0131967A
:1009400011921192E817F907D9F7CE0101966C01BF
:1009500020E030E080E090E0BC016F5F7F4FC80195
:100960002D8B3E8B0E9463022D893E898F3FAFEF16
:100970009A0781F0D801ED91FC911197E80FF91FCA
:10098000108212964D915C91139741505109841732
:10099000950741F4AE014F5F5F4FB701C8010E9458
:1009A000DD030FC00196F80140815181480F591FA6
:1009B000D6014D935D936D012F5F3F4F2A30310576
:1009C00059F666960FB6F894DEBF0FBECDBFDF9125
:1009D000CF911F910F91FF90EF90DF90CF900895EE
:1009E0001F93CF93DF93EC01162F4C815D818A8199
:1009F0009B814817590751F44F5F5F4F60E070E0EB
:100A0000888199810E94E50F1D821C828C819D81C5
:100A100028813981F901E80FF91F1A3089F4108211
:100A2000CE010E9480044A815B814F5F5F4F60E08E
:100A300070E0888199810E94E50F1D821C8206C0AA
:100A400010838C819D8101969D838C83DF91CF9152
:100A50001F910895EF92FF920F931F93CF93DF930F
:100A6000EC017B018A01E989FA898091100190915A
:100A700011010995E989FA8989E792E00995E989DF
:100A8000FA89C7010995E989FA8989E792E0099508
:100A9000E989FA89C8010995E989FA898BE792E021
:100AA000DF91CF911F910F91FF90EF900994FC017E
:100AB000748763870895FC017687658708951F9280
:100AC0000F920FB60F9211242F933F938F939F9302
:100AD000AF93BF9380912B0390912C03A0912D0392
:100AE000B0912E0330912A0323E0230F2D3720F4F9
:100AF0000196A11DB11D05C026E8230F0296A11D78
:100B0000B11D20932A0380932B0390932C03A09371
:100B10002D03B0932E0380912F0390913003A09169
:100B20003103B09132030196A11DB11D80932F03B3
:100B300090933003A0933103B0933203BF91AF91F0
:100B40009F918F913F912F910F900FBE0F901F900B
:100B500018953FB7F89480912F0390913003A0919E
:100B60003103B091320326B5A89B05C02F3F19F081
:100B70000196A11DB11D3FBF6627782F892F9A2F9F
:100B8000620F711D811D911D42E0660F771F881F46
:100B9000991F4A95D1F708958F929F92AF92BF9275
:100BA000CF92DF92EF92FF926B017C010E94A90528
:100BB0004B015C01C114D104E104F104F1F00E9485
:100BC000490D0E94A905681979098A099B09683E9F
:100BD00073408105910570F321E0C21AD108E10844
:100BE000F10888EE880E83E0981EA11CB11CC11488
:100BF000D104E104F10429F7DDCFFF90EF90DF90FD
:100C0000CF90BF90AF909F908F900895789484B5C7
:100C1000826084BD84B5816084BD85B5826085BDF8
:100C200085B5816085BDEEE6F0E0808181608083DE
:100C3000E1E8F0E0108280818260808380818160C1
:100C40008083E0E8F0E0808181608083E1E9F0E08A
:100C5000808182608083808181608083E0E9F0E030
:100C6000808181608083E1ECF0E08081846080831A
:100C7000808182608083808181608083E3ECF0E00A
:100C8000808181608083E0ECF0E0808182608083FD
:100C9000E2ECF0E0808181608083EAE7F0E080812F
:100CA0008460808380818260808380818160808392
:100CB000808180688083089590E0FC013197EF3057
:100CC000F105B0F5EA5AFF4F0C94E50D80918000D4
:100CD0008F7703C0809180008F7D8093800008957E
:100CE00080918000877FF9CF84B58F7702C084B56B
:100CF0008F7D84BD0895809190008F7707C080918B
:100D000090008F7D03C080919000877F809390003A
:100D100008958091C0008F7703C08091C0008F7DBF
:100D20008093C00008958091C200877F8093C200A5
:100D30000895CF93DF9390E0FC01E751FF4F24919A
:100D4000FC01E85FFE4F8491882349F190E0880F11
:100D5000991FFC01EB5CFE4FA591B491895D9E4FFC
:100D6000FC01C591D4919FB7611108C0F8948C9192
:100D7000209582238C93888182230AC0623051F4AB
:100D8000F8948C91322F309583238C938881822B19
:100D9000888304C0F8948C91822B8C939FBFDF9141
:100DA000CF9108950F931F93CF93DF931F92CDB7E9
:100DB000DEB7282F30E0F901E653FF4F8491F901A7
:100DC000E751FF4F1491F901E85FFE4F04910023B2
:100DD000C9F0882321F069830E945C066981E02FB5
:100DE000F0E0EE0FFF1FE95DFE4FA591B4919FB7B4
:100DF000F8948C91611103C01095812301C0812B5F
:100E00008C939FBF0F90DF91CF911F910F91089509
:100E1000CF93DF931F92CDB7DEB76983DC01ED91ED
:100E2000FC910280F381E02D41E050E0BE016F5F54
:100E30007F4F09950F90DF91CF910895CF93DF9366
:100E4000EC018C859D8597FF05C082E00E944509D5
:100E50009D878C878C859D85DF91CF91089583E058
:100E60000C94D90BFC018485958597FD06C082E022
:100E70000E94ED0890E00196089582E00E94ED083E
:100E800090E00895FC018485958597FD05C02FEFBE
:100E90003FEF35872487089582E00C944509CF936E
:100EA000DF93EC0180912301882331F083E00E94DD
:100EB00076091816190634F081E090E09B838A8346
:100EC00080E090E0DF91CF910895FC0120812E5FBA
:100ED000208342E450E063E471E080E80C94110A5E
:100EE000FC0121818081813A59F4213209F04BC003
:100EF00047E050E06CE171E080E00E94110A5EC0C2
:100F0000813209F040C0233289F4838190E0982F28
:100F100088273281832BA0E0B0E080931801909362
:100F20001901A0931A01B0931B010FC0203239F4AC
:100F300067E070E08CE191E00E94420A09C0223231
:100F400021F482818093230103C02D7F2032B1F5EB
:100F500080918303811103C0E0E0F8E002C0EEEF6E
:100F6000FAE080911C0190911D01A0911E01B091A9
:100F70001F01803B9440A105B10511F5809123012B
:100F800080FF03C01DC080E00895EE3F2AE0F20715
:100F900031F0808191819093FF0A8093FE0A87E768
:100FA00097E7918380832BE088E190E00FB6F89477
:100FB000A895809360000FBE2093600081E00895A3
:100FC00088E10FB6F89480936000109260000FBE25
:100FD000A895EE3F8AE0F80739F08091FE0A9091DB
:100FE000FF0A91838083EACF1092FF0A1092FE0AD3
:100FF000E5CF2FEF3FEFFC0135872487089510924E
:1010000036031092350388EE93E0A0E0B0E08093C1
:10101000370390933803A0933903B0933A0387E0E2
:1010200093E090933403809333038FEF9FEF90937B
:10103000400380933F0308956115710581F0DB0142
:101040000D900020E9F7AD0141505109461B570BA7
:10105000DC01ED91FC910280F381E02D099480E0A8
:1010600090E008950C941C08615030F02091F1003C
:10107000FC0120830196F8CF289884E680938D03A5
:1010800008954091880350918903209186033091FF
:10109000870342175307B4F49091E8009570E1F389
:1010A0009091E80092FD19C08093F100809188032F
:1010B0009091890301968F739927892B19F48EEFEC
:1010C0008093E80080918803909189030196909322
:1010D00089038093880381E0089580E00895CF928A
:1010E000DF92EF92FF920F931F93CF93DF931F92A4
:1010F000CDB7DEB7082F162FF42E862F880F8E5F00
:1011000099830E94410883E00E944108E02EC02E8E
:101110009981D92E8C2D8E19811798F4F601F7FE3E
:1011200002C0849101C080810E944108082F80E0A4
:101130000E9441088023FFEFCF1ADF0A8111EACF16
:1011400001C081E00F90DF91CF911F910F91FF902F
:10115000EF90DF90CF9008958091D70081608093C9
:10116000D70080EA8093D80089B5806189BD89B5B0
:10117000826089BD09B400FEFDCF61E070E080E0CF
:1011800090E00E94CC058091D8008F7C8061809394
:10119000D8008091E000807F8093E0000895CF9395
:1011A000DF931F92CDB7DEB71982CE0101960E9460
:1011B00065070E94D10DBE016F5F7F4F0E944A0DEF
:1011C00089810F90DF91CF9108952FB7FC01208383
:1011D000F89467706093E9000895CF93DF931F92AE
:1011E000CDB7DEB7682FCE0101960E94E508809149
:1011F000F20099819FBF0F90DF91CF910895FF92E8
:101200000F931F93CF93DF9300D0CDB7DEB7F62EA9
:101210008A0190918C03992311F057FF03C08FEF3F
:101220009FEF2BC0682FCE0101967A830E94E508BC
:101230008091F20090E0A8017A81801791070CF468
:10124000AC01EF2DF72FF40E84E6FE1639F0289846
:1012500080938D039091F1009193F7CF4115510543
:1012600021F08091F200882321F089818FBFCA018B
:1012700004C08BE68093E800F8CF0F900F90DF91C9
:10128000CF911F910F91FF900895CF93DF931F92FD
:10129000CDB7DEB741E050E0BE016F5F7F4F0E94E7
:1012A000FF08019719F4898190E002C08FEF9FEF4A
:1012B0000F90DF91CF910895CF93DF931F92CDB719
:1012C000DEB7682FCE0101960E94E5089091E800F4
:1012D000892F807295FF04C09091F20080E4891BF1
:1012E00099819FBF0F90DF91CF9108956F927F9268
:1012F0008F929F92AF92BF92CF92DF92EF92FF9226
:101300000F931F93CF93DF931F92CDB7DEB7782E45
:101310007B01C42EB52E80918C03882369F0042FA5
:10132000152F8AEFD82E872D8072982E9AE3A92E3A
:10133000872D8074882E11C08FEF9FEF57C0872DA7
:101340000E945C09682E81110CC0DA94A9F361E057
:1013500070E080E090E00E94CC050115110579F75E
:101360003BC0282F30E0021713070CF4602E672DC6
:10137000CE0101960E94E5088091E80085FF29C012
:10138000262D30E0021B130B992039F06A948FEF61
:101390006816B1F01092F100F9CFF701862D77FEB3
:1013A00007C0815058F094919093F1003196F9CF95
:1013B000815020F091919093F100FACFE20EF31E4C
:1013C0008091E80085FF0FC00115110511F481100F
:1013D0000AC089818FBFC1CF5D9884E680938E0358
:1013E0008C2D9B2D03C0A092E800F3CF0F90DF91CE
:1013F000CF911F910F91FF90EF90DF90CF90BF9012
:10140000AF909F908F907F906F9008951092E90019
:101410001092890310928803909387038093860328
:101420000895CF92DF92FF920F931F93CF93DF9394
:1014300000D0CDB7DEB7F82E8A016B01011511057A
:10144000B1F0F601F7FE02C0849101C080814983AA
:101450005A830E94410801501109FFEFCF1ADF0A99
:1014600049815A818111EACF8FEF9FEF01C0CA01F4
:101470000F900F90DF91CF911F910F91FF90DF9010
:10148000CF900895BF92CF92DF92EF92FF920F9389
:101490001F93CF93DF936C018B01EB013BEFB32ED6
:1014A0002097C1F07E01C134D1051CF020E4E22E6A
:1014B000F12C8091E80082FFFCCFC8018C1B9D0BB2
:1014C0006E2D8C0D9D1D0E943408B092E800CE193F
:1014D000DF09E6CFC801DF91CF911F910F91FF90F7
:1014E000EF90DF90CF90BF9008951F920F920FB6AC
:1014F0000F921124DF92EF92FF920F931F932F937D
:101500003F934F935F936F937F938F939F93AF938B
:10151000BF93EF93FF93CF93DF93CDB7DEB76C9775
:10152000DEBFCDBF1092E9008091E80083FF23C1A8
:1015300068E0CE0145960E94340882EF8093E8006F
:101540003D8937FF05C08091E80080FFFCCF03C0D4
:101550008EEF8093E800832F807609F0F0C02E890B
:101560004F89D88C21110CC0303829F480918B031D
:101570008093F10002C01092F1001092F100F4C0CB
:10158000842F90E09D29213049F43111EDC001975D
:1015900009F0EAC080918B038D7F0AC0233059F493
:1015A0003111E2C0019709F0DFC080918B038260A6
:1015B00080938B03D9C0253041F48091E80080FFEF
:1015C000FCCF40684093E300CFC0263009F08DC0C7
:1015D000EB8CFC8C22E0D2122CC080E090E00E94C8
:1015E000060A0E94CF0899E08E010F5F1F4FF80195
:1015F000292F11922A95E9F79983DA8291E09E8347
:1016000090EA98879AEF998720918803309189030F
:10161000275F3F4F3C832B838D83C7010E94060ABF
:1016200049E050E0B80180E00E94110A0E94CF0812
:101630009BC0C7010E94060A0E94D10DBE016B5ECD
:101640007F4F0E94730D009719F00CF08DC090C071
:1016500081E0D8120EC08B8D9C8D089719F481E023
:10166000809385038091850381112FC067E971E024
:1016700031C0E3E0DE127CC08F89882349F18230DB
:1016800029F440E860E185EB91E01CC0813029F449
:1016900040E86BE089EA91E015C0833009F068C04A
:1016A0000E94D10D8E010F5F1F4FB8010E94920D55
:1016B000F80101900020E9F73197E01BF10B40E0C1
:1016C0006E2FC8010E946F084DC065E871E002C02E
:1016D00066EC71E06115710509F44AC0FB014491A3
:1016E00050E080E80E94110A3FC0273009F440C052
:1016F000283021F481E08093F10036C02930A1F533
:101700003370B1F5E5E2F1E081E021E036E390816C
:10171000992361F08093E9002093EB0091919093DD
:10172000EC003093ED008F5F873089F78EE7809370
:10173000EA001092EA008F8980938C0315C08B8D8C
:101740009C8D0E94060A898D811105C0CE014596A7
:101750000E94700707C00E94D10DBE016B5E7F4FD3
:101760000E94B10D882321F08EEF8093E80003C022
:1017700081E28093EB006C960FB6F894DEBF0FBE4B
:10178000CDBFDF91CF91FF91EF91BF91AF919F912D
:101790008F917F916F915F914F913F912F911F9109
:1017A0000F91FF90EF90DF900F900FBE0F901F9062
:1017B00018958093E9008091F200882319F08AE35C
:1017C0008093E80008951F920F920FB60F92112494
:1017D0002F933F934F935F936F937F938F939F9339
:1017E000AF93BF93CF93EF93FF93C091E1008091AC
:1017F000E100837F8093E1008093E100C3FF0FC08D
:101800001092E90081E08093EB001092EC0082E3FB
:101810008093ED0010928C0388E08093F000C2FF6B
:1018200019C083E00E94D90B80918E03882339F080
:1018300080918E03815080938E03882389F180915B
:101840008D03882339F080918D03815080938D031F
:10185000882341F1C4FF10C08091E2008E7E816038
:101860008093E2008091E1008F7E8093E10080917F
:101870008A038E7E806111C0C0FF16C08091E20095
:101880008E7E80618093E2008091E1008E7E809365
:10189000E10080918A038E7E816080938A0304C078
:1018A0005D9ACDCF289AD6CFFF91EF91CF91BF917E
:1018B000AF919F918F917F916F915F914F913F91E8
:1018C0002F910F900FBE0F901F90189510928C03C0
:1018D00010928B0310928A030E94AC088091E10061
:1018E0008E7E8093E1008DE08093E200559A209AED
:1018F000EEEFFFE7859194918B3F9C4D19F481E0C9
:10190000809383030895FC01808191810C94830E60
:10191000CF93DF93EC0188819981009711F00E94A9
:10192000830E198218821D821C821B821A82DF910B
:10193000CF9108950F931F93CF93DF93EC018B0109
:101940006F5F7F4F888199810E94120F009731F05D
:10195000998388831B830A8381E001C080E0DF9143
:10196000CF911F910F910895CF93DF93EC01888160
:101970009981892B29F08A819B818617970760F4CA
:10198000CE010E949A0C882341F08C819D81892B85
:1019900019F4E881F981108281E0DF91CF910895F7
:1019A000EF92FF920F931F93CF93DF93EC017B0194
:1019B0008A01BA010E94B40C811104C0CE010E94B8
:1019C000880C07C01D830C83B701888199810E9410
:1019D000F50FCE01DF91CF911F910F91FF90EF9006
:1019E0000895CF93DF93EC016115710561F0FB0160
:1019F00001900020E9F7AF0141505109461B570BF8
:101A00000E94D00C02C00E94880CCE01DF91CF91C1
:101A100008950F931F93CF93DF93CDB7DEB76197F0
:101A20000FB6F894DEBF0FBECDBF8C01CB01F8011D
:101A300011821082138212821582148250E0BE013C
:101A40006F5F7F4F0E94FC0FBE016F5F7F4FC80129
:101A50000E94F10C61960FB6F894DEBF0FBECDBFA9
:101A6000DF91CF911F910F91089508950E9406066E
:101A70000E94350D84E893E00E94660C0E946D017F
:101A8000C0E0D0E00E94F3012097E1F30E94000043
:101A9000F9CF0895EF92FF920F931F93CF93DF93A7
:101AA0007B01FC01C281D38100E010E0209781F02E
:101AB000E881F9810280F381E02DB701CE0109951B
:101AC00097FD08C0080F191F0884D985C02DEECFD7
:101AD000C80102C08FEF9FEFDF91CF911F910F914F
:101AE000FF90EF9008950F931F93CF93DF938B0197
:101AF000FC01C281D381209771F0E881F9810480D3
:101B0000F581E02DB801CE010995009731F40884E4
:101B1000D985C02DF0CF80E090E0DF91CF911F916B
:101B20000F9108950F931F93CF93DF938B01FC01C7
:101B3000C281D381209771F0E881F9810680F78115
:101B4000E02DB801CE010995080F111D0884D98533
:101B5000C02DF0CFF8011082DF91CF911F910F912E
:101B600008950F931F93CF93DF938B01FC01C281E4
:101B7000D381209771F0E881F9810190F081E02D07
:101B8000B801CE010995811106C00884D985C02D00
:101B9000F0CF80E001C081E0DF91CF911F910F91E4
:101BA00008958091930381110DC082E080938F038B
:101BB00084E080939003109292031092910381E04D
:101BC000809393038FE893E00895EE0FFF1F059035
:101BD000F491E02D0994CF93DF938230910510F4B6
:101BE00082E090E0E0919D03F0919E0320E030E0E0
:101BF000A0E0B0E0309739F1408151814817590792
:101C0000B8F04817590771F482819381109729F031
:101C100013969C938E9312972CC090939E0380935F
:101C20009D0327C02115310531F04217530718F0E5
:101C3000A901DB0101C0EF019A01BD01DF010280B2
:101C4000F381E02DD7CF21153105F9F0281B390B91
:101C50002430310580F48A819B816115710521F062
:101C6000FB019383828304C090939E0380939D0322
:101C7000FE01329644C0FE01E20FF31F819391935F
:101C800022503109398328833AC020919B03309137
:101C90009C03232B41F420910201309103013093E6
:101CA0009C0320939B032091000130910101211599
:101CB000310541F42DB73EB7409104015091050123
:101CC000241B350BE0919B03F0919C03E217F30773
:101CD000A0F42E1B3F0B2817390778F0AC014E5F9C
:101CE0005F4F2417350748F04E0F5F1F50939C033A
:101CF00040939B038193919302C0E0E0F0E0CF0119
:101D0000DF91CF910895CF93DF93009709F487C0B7
:101D1000FC01329713821282C0919D03D0919E03E1
:101D2000209781F420813181280F391F80919B03F6
:101D300090919C038217930779F5F0939C03E093AD
:101D40009B036DC0DE0120E030E0AE17BF0750F40A
:101D500012964D915C9113979D014115510509F122
:101D6000DA01F3CFB383A28340815181840F951FA1
:101D70008A179B0771F48D919C911197840F951F81
:101D800002969183808312968D919C9113979383F1
:101D900082832115310529F4F0939E03E0939D037E
:101DA0003EC0D9011396FC93EE9312974D915D912D
:101DB000A40FB51FEA17FB0779F480819181840F86
:101DC000951F0296D90111969C938E9382819381DF
:101DD00013969C938E931297E0E0F0E08A819B81AA
:101DE000009719F0FE01EC01F9CFCE01029628818F
:101DF0003981820F931F20919B0330919C032817F8
:101E0000390769F4309729F410929E0310929D03CC
:101E100002C013821282D0939C03C0939B03DF9174
:101E2000CF910895A0E0B0E0E8E1FFE00C94351018
:101E3000EC01CB01209719F40E94EB0DB8C0FE0114
:101E4000E60FF71F9E0122503109E217F30708F44D
:101E5000ACC0D9010D911C91119706171707B8F066
:101E60000530110508F49FC0A801445051094617D8
:101E7000570708F498C002501109061B170B01936D
:101E800011936D937C93CF010E94830E8CC05B01F4
:101E9000A01AB10A4E01800E911EA0919D03B0912F
:101EA0009E03612C712C60E070E0109709F449C02A
:101EB000A815B905C9F5ED90FC901197670142E0AE
:101EC000C40ED11CCA14DB0478F147018A189B08A0
:101ED000640142E0C40ED11C1296BC901297139676
:101EE000AC91B5E0CB16D10440F0B282A3839182CD
:101EF0008082D9018D939C9309C00E5F1F4F0E0DF8
:101F00001F1DF90111830083EB2DFA2F6115710557
:101F100031F0DB011396FC93EE93129744C0F093DB
:101F20009E03E0939D033FC06D917C9111976616CF
:101F3000770608F43B01BD0112960D90BC91A02DCF
:101F4000B4CF60919B0370919C0368157905E9F407
:101F500068167906D0F440910001509101014115B5
:101F6000510541F44DB75EB76091040170910501D0
:101F7000461B570BE417F507C0F4F0939C03E0935E
:101F80009B03F901918380830EC00E94EB0D7C01BD
:101F9000009759F0A801BE010E94DC0FCE010E94FB
:101FA000830EC70104C0CE0102C080E090E0CDB72F
:101FB000DEB7EEE00C945110FB01DC0102C0019091
:101FC0000D9241505040D8F70895DC0101C06D9347
:101FD00041505040E0F70895FB01DC018D910190E4
:101FE00080190110D9F3990B0895FB01DC010190D0
:101FF0000D920020E1F708954532510520F442305A
:1020000010F00C940710FB011082CB010895BB2740
:10201000FB015527AA27880F991FAA1FA41710F0A4
:10202000A41B83955051B9F7A05DAA3308F0A95DB0
:10203000A193009779F7B111B1931192CB010C9450
:102040002110DC01FC01672F71917723E1F73297B2
:1020500004C07C916D9370836291AE17BF07C8F383
:1020600008952F923F924F925F926F927F928F923C
:102070009F92AF92BF92CF92DF92EF92FF920F9317
:102080001F93CF93DF93CDB7DEB7CA1BDB0B0FB621
:10209000F894DEBF0FBECDBF09942A8839884888DE
:1020A0005F846E847D848C849B84AA84B984C88474
:1020B000DF80EE80FD800C811B81AA81B981CE0F6B
:1020C000D11D0FB6F894DEBF0FBECDBFED01089550
:1020D00011E0CEECD1E004C0FE010E94E70D229693
:0A20E000C03DD107C9F7F894FFCF07
:1020EA0000009F0380004E018D0143026A0207002F
:1020FA00F7028C02FC020003FFFFFFFF00E1000071
:10210A000000000000C18081000000626C696E6BF3
:10211A00006765745F626C696E6B735F636F756E7F
:10212A007400556E6B6E6F776E20636D64003C733E
:10213A00656E736F72733E3C73656E736F72206E59
:10214A00616D653D22626C696E6B735F636F756E5C
:10215A00742220747970653D2273696E676C6522FA
:10216A002F3E3C2F73656E736F72733E003C636F34
:10217A006E74726F6C733E3C67726F75702074690F
:10218A00746C653D2244657669636520636F6E747D
:10219A00726F6C73223E3C636F6E74726F6C207345
:1021AA00796E633D223022207469746C653D224247
:1021BA006C696E6B2220636F6D6D616E643D226285
:1021CA006C696E6B222F3E3C636F6E74726F6C206B
:1021DA0073796E633D223022207469746C653D22E6
:1021EA005265616420626C696E6B7320636F756EF1
:1021FA00742220636F6D6D616E643D226765745F42
:10220A00626C696E6B735F636F756E74222F3E3CEE
:10221A002F67726F75703E3C2F636F6E74726F6CAE
:10222A00733E007B66383435323663312D35653876
:10223A00382D343331352D383166382D663764619F
:10224A0034356461613039647D006C65645F626C49
:10225A00696E6B5F74657374007C000A006964655B
:10226A006E7469667900646576696365696E666F1E
:10227A0000717565727976657273696F6E0073693C
:10228A006D706C655F76312E300063616C6C004E48
:10229A006F20636F6D6D616E64002373656E736F7B
:1022AA0072730023636F6E74726F6C7300756E6B5A
:1022BA006E6F776E206572726F72004552524F527E
:1022CA003A20756E6B6E6F776E206D6573736167FA
:1022DA00650073796E63006D6561730065727200E3
:1022EA006F6B000000000008074F07320742071E05
:0422FA00072F0700A3
:00000001FF
